:04000000A4EF0FF06A
:101F200007C001F008C002F0120007C005F008C0A9
:101F300006F0120007C003F008C004F01200700E93
:101F4000D36E000E9B6E12000A6A000EF86E00013E
:101F5000CEEF0FF0BCEC0FF09FEC0FF0E1EC0FF0C8
:101F60001200076E9EA8B7EF0FF0B9EF0FF0B2EFB7
:101F70000FF007C0ADFF1200000E896E000E8A6ED2
:101F8000000E8B6E92689368BF0E946E1F0E7E6E6D
:101F90001F0E7F6E000E7C6EF18E1200AAEC0FF009
:101FA000340EB1EC0FF00D0EB1EC0FF0820E096E95
:101FB000DE0EE82EFED7092EFCD7D0EF0FF000EF93
:101FC00000F0080EB86E900EAB6E240EAC6E670E6D
:101FD000AF6E000EB06E000E076E000E086E95EC30
:101FE0000FF0000E076E000E086E9AEC0FF0000E58
:101FF000076E000E086E90EC0FF0000E0A6E1200D5
:020000040020DA
:08000000FFFFFFFFFFFFFFFF00
:020000040030CA
:0E000000FF011F1EFF0B81FF0FC00FE00F401E
:00000001FF
